:02000002B0004C
:1040000000400B0052530B00000006000C0005029C
:084010000401D41700000000B8
:0440180024500B0025
:10401C00034613F8012B002AFBD1181A01387047FC
:10402C0009480A49884208B505D0094A824202D09B
:10403C00121A00F047FF0748074A0021121A00F035
:10404C004FFF014808BD00BF4CE60320B8520B00DF
:10405C00B8E60320B8E60320FCE7032070B5074E52
:10406C00074C00F06FFBA41BA4080025AC4200D148
:10407C0070BD56F8043B98470135F7E770520B00BA
:10408C0094520B0000F013B808B500F014F8BDE81A
:10409C00084000F00FBB00F0D9B900F0DFB9007890
:1040AC00B0FA80F04009704701230370704701217A
:1040BC00072000F055BE08B50121072000F061FE75
:1040CC0040F6B83000F0CAFA0720002100F059FE83
:1040DC00BDE808404FF47A7000F0C0BA08B5012072
:1040EC00002100F01FF9064B0022C3E90022A2F5C3
:1040FC0080329A60BDE80840022000F003B900BF8E
:10410C00B8E6032008B5024B1B689B68019308BDF9
:10411C006802030008B5024B1B68DB68019308BDFD
:10412C006802030008B5024B1B689B68019308BD2D
:10413C002C02030008B5024B1B68DB68019308BD19
:10414C002C02030008B5024B1B681B69019308BDC8
:10415C002C02030008B5024B1B685B68019308BD79
:10416C001802030008B5024B1B685B69019308BD7C
:10417C001802030008B5024B1B685B6C019308BD69
:10418C004802030008B5024B1B685B69019308BD2C
:10419C006402030008B5024B1B68DB68019308BD81
:1041AC003C02030008B5024B1B681B69019308BD58
:1041BC003C02030008B5024B1B685B69019308BD08
:1041CC003C02030008B5024B1B689B69019308BDB8
:1041DC003C02030008B5024B1B68DB69019308BD68
:1041EC003C02030008B5024B1B681B6A019308BD17
:1041FC003C02030008B5024B1B689B6A019308BD87
:10420C003C02030008B5024B1B681B6C019308BDF4
:10421C003C02030008B5024B1B681B6A019308BDE6
:10422C002802030008B5024B1B685B6A019308BDAA
:10423C002802030008B5024B1B689B6A019308BD5A
:10424C002802030008B5024B1B68DB6A019308BD0A
:10425C002802030008B5024B1B681B6B019308BDB9
:10426C002802030008B5024B1B685B6B019308BD69
:10427C002802030008B5024B1B681B6C019308BD98
:10428C002802030008B5024B1B68DB69019308BDCB
:10429C003002030008B5024B1B681B6A019308BD72
:1042AC003002030008B5024B1B681B68019308BD64
:1042BC004C02030008B5024B1B681B69019308BD37
:1042CC004C02030008B5024B1B685B69019308BDE7
:1042DC004C02030008B5024B1B689B69019308BD97
:1042EC004C02030008B5024B1B68DB69019308BD47
:1042FC004C02030008B5024B1B681B6A019308BDF6
:10430C004C02030008B5024B1B685B68019308BDA7
:10431C002002030008B5024B1B685B69019308BDC2
:10432C002002030008B5024B1B68DB6A019308BD31
:10433C002002030008B5034B1B68D3F888300193A7
:10434C0008BD00002002030008B5034B1B68D3F81E
:10435C009430019308BD00002002030008B5024B05
:10436C001B685B68019308BD4002030008B5024B53
:10437C001B689B68019308BD4002030008B5024B03
:10438C001B68DB68019308BD4002030008B5024BB3
:10439C001B681B69019308BD4002030008B5024B62
:1043AC001B685B69019308BD4002030008B5024B12
:1043BC001B689B69019308BD4002030008B5024BC2
:1043CC001B68DB69019308BD4002030008B5024B72
:1043DC001B681B6A019308BD4002030008B5024B21
:1043EC001B681B6B019308BD4002030008B5024B10
:1043FC001B685B6B019308BD4002030008B5024BC0
:10440C001B681B6C019308BD4002030008B5024BEE
:10441C001B685B6C019308BD4002030008B5024B9E
:10442C001B685B6D019308BD4002030008B5024B8D
:10443C001B689B6D019308BD4002030008B5024B3D
:10444C001B68DB6B019308BD4402030008B5024BEB
:10445C001B681B68019308BD1C02030008B5024BC6
:10446C001B685B68019308BD1C02030008B5024B76
:10447C001B681B6C019308BD1C02030008B5024BA2
:10448C001B685B6C019308BD1C0203000022406892
:10449C001146FFF79BBF002240681146FFF7A6BFED
:1044AC0040680022FFF79ABF4068002281F00101AA
:1044BC00FFF784BF002340681A461946FFF776BF02
:1044CC00002340681A461946FFF768BF002240686F
:1044DC001146FFF75BBF002240681146FFF746BF4D
:1044EC00406800220221FFF749BF002340681A46AA
:1044FC00FFF734BF024B03225A60024A1A6070471E
:10450C00C4E6032040500B0010B504460846217049
:10451C00FFF7B8FE00236360204610BD054B022256
:10452C001A60054B054A9A600020C3E90000FFF7AA
:10453C00E9BE00BFD8E60320CCE603200000FFFF55
:10454C00024800230360FFF715BE00BFDCE6032022
:10455C00F8B506460D468F180024BD420CD03368C2
:10456C0015F8011B9B6830469847031E01DB1C4461
:10457C00F3E7002C08BF1C462046F8BD13B50446D3
:10458C00084659B10191FFF743FD23680199DB6897
:10459C000246204602B0BDE81040184702B010BDDC
:1045AC0003689B68184730B58BB00023012A8DF83F
:1045BC00243098BF0A2209AC0D46B1FBF2F101FB85
:1045CC00125303F0FF03092B94BF30333733DBB2A4
:1045DC00AA4204F8013DEFD92146FFF7CFFF0BB0FB
:1045EC0030BD10B50446FFF7BDFDE06023682046E2
:1045FC005B699847002808DAFFF7B4FDE368C01A36
:10460C00A3689842F2D34FF0FF3010BD2DE9F04172
:10461C0007460C468E180D46B542A5EB040807D08C
:10462C003846FFF7DEFF031E02DB05F8013BF3E71C
:10463C004046BDE8F0810000014B024A1A60704709
:10464C00E0E603207C500B00024B1A68024B1A6008
:10465C00704700BF4CE60320E4E603200021FFF77F
:10466C0059BE0000014B00229A607047E8E6032017
:10467C00014B1860704700BF50E6032008B50B4B88
:10468C0043B100F063F903681B699847002801DD0A
:10469C00AFF30080064B43B100F0A8FB03681B6925
:1046AC009847002801DDAFF3008008BD0000000032
:1046BC000000000008B5FFF7E1FFFFF753FD014BC9
:1046CC00186008BD4CE703200548064A064908B5A2
:1046DC00121A00F0F7FB054B054A1A6008BD00BF23
:1046EC0000F4032004F4032024530B0000F40320F3
:1046FC001E1C279A07B5002300931A466FF077010A
:10470C00FFF722FE03B05DF804FB000007B54388F9
:10471C000A2B08D0502B0BD1094B1B684BB103B0A3
:10472C005DF804EB1847FFF7E5FF03B05DF804FBF9
:10473C00002300931A466FF07701FFF705FEF4E7AC
:10474C00FCE6032010B512480021FFF797FE114B31
:10475C001A68114B9A42114B0CBF012200221A709D
:10476C0001D0FFF7B1FFFFF7F5FC044600F0C0FBEA
:10477C000B4B13B12046AFF3008000210848FFF724
:10478C005DFEBDE8104007480021FFF7D3BD00BF18
:10479C007D460B0000F403201E1C279AF8E603202C
:1047AC000000000019470B00704710B51821044693
:1047BC00FFF773FC204610BDF0B5037D062B8DB0C2
:1047CC000E4600F104074FF0000412D000F108056A
:1047DC0015F8011D0A223046FFF7E5FEAF420444EE
:1047EC0019D0002CF4D02E213046FFF7D9FE04440A
:1047FC00EEE72F236A4639460A208DF80040FFF772
:10480C00C1FC6846FFF704FC33680246DB68694666
:10481C0030469847044620460DB0F0BD10B5054B08
:10482C000446112240F8043B002100F059FB2046BD
:10483C0010BD00BFA4500B000346074A10B543F847
:10484C00042B01F1100251F8044B43F8044B914234
:10485C00F9D10A781A7010BDA4500B0010B59DF850
:10486C00084044EA032343EA024242EA016104237A
:10487C004160037510BD000007B5064B0360CB7893
:10488C0000938B784A780978FFF7E8FF03B05DF85E
:10489C0004FB00BFA4500B00417470477047704775
:1048AC0008B50021007CFFF715FD40EAE07008BD5B
:1048BC0008B50121007CFFF70DFD40EAE07008BD52
:1048CC0008B5007CFFF7FEFC20EAE07008BD08B5D7
:1048DC00007CFFF7EFFC20EAE07008BD13B504463E
:1048EC00007C0191FFF7EEFC0028019901DC607C53
:1048FC0020B1207CFFF7F6FC20EAE07002B010BD7E
:10490C00007CFFF7F7BC10B514210446FFF7C5FB7C
:10491C00204610BD10B54FF47A73044608460021AA
:10492C00C4E90113044B2360012320746374114602
:10493C00FFF7B8FC204610BDB8500B0010B5142280
:10494C000446002100F0CCFA204610BD10B50F4CE7
:10495C0088B003A8FFF7F2FF2178BFF35B8F11F04B
:10496C0001010FD120460191FFF799FB019948B144
:10497C0003AA0748FFF7CEFF2046FFF795FB054833
:10498C0000F09AFA024808B010BD00BF00E70320FF
:10499C0004E70320A9480B0070474174704708B521
:1049AC00007CFFF727FC20EAE07008BD08B5007C0E
:1049BC00FFF7F8FB20EAE07008BD08B5007CFFF7B4
:1049CC0001FC40EAE07008BD08B5007CFFF7F2FB83
:1049DC0040EAE07008BD007CFFF7FCBB37B5457CB6
:1049EC0004462DB1207C03B0BDE83040FFF7D2BBAC
:1049FC00007C0191FFF7FEFB00280199F2DC2846B0
:104A0C0003B030BD10B514210446FFF746FB204619
:104A1C0010BD000010B54FF47A73044608461146D9
:104A2C000022C4E90123044B236001232074637426
:104A3C00FFF7E8FB204610BDEC500B007047F8B5B3
:104A4C00064615460C468F18BC4206D0336814F83F
:104A5C00011B9B6830469847F6E72846F8BD007C5A
:104A6C000022FFF7D7BB007C0021FFF7DBBB007CEB
:104A7C000021FFF7DFBB007C0021FFF7E3BB007CCC
:104A8C000021FFF7E7BB10B514210446FFF705FB27
:104A9C00204610BD38B5044615464FF47A730022F3
:104AAC00C4E90123094B2174084623602946FFF70A
:104ABC00E1FBBF3008D16B69DB0705D56868FFF7F0
:104ACC00CDFCE868FFF7CAFC204638BD20510B002E
:104ADC00002240681146FFF759BC0022406811467D
:104AEC00FFF774BC002240681146FFF77FBC40689A
:104AFC000022FFF773BC4068002281F00101FFF730
:104B0C005DBC002340681A461946FFF74FBC0023D2
:104B1C0040681A461946FFF741BC0022406811460E
:104B2C00FFF724BC406800220221FFF727BC0023BA
:104B3C0040681A46FFF712BC024B04225A60024A24
:104B4C001A60704718E703204C510B000023406893
:104B5C001A46FFF703BC406800220221FFF70EBC87
:104B6C00002240681146FFF701BC00224068114644
:104B7C00FFF70CBC002340681A461946FFF70EBC21
:104B8C00002340681A461946FFF710BC4068002104
:104B9C00FFF734BC40680021FFF738BC40680022A6
:104BAC0081F00101FFF70ABC40680022FFF716BC38
:104BBC00002240681146FFF719BC002240681146DC
:104BCC00FFF704BC40680021FFF730BC2DE9F0432F
:104BDC0095B014460D460746FFF720FE00211C2217
:104BEC000DA8009100F07CF940230C9320466B46F5
:104BFC000CAA0021FFF78EFA044600284BD102467E
:104C0C0001216868FFF7C2FB0221804622466868D2
:104C1C00FFF7BCFB009E81462146002E3BD00029AD
:104C2C0039D17368022B03D00A2B11D0F669F4E743
:104C3C00B8F1000FFAD0716906A8043107ADFFF77F
:104C4C001BFE0FCD3C1D0FC42B6823704146EDE7B6
:104C5C00B9F1000FEAD07469102201A800F040F9F4
:104C6C0006238DF8143001AD04F1080318341868CC
:104C7C0059682A4603C20833A3421546F7D101A945
:104C8C0006A807ADFFF7D8FD0FCD3C1D0FC42B6850
:104C9C0023704946CAE70098FFF734FA384615B036
:104CAC00BDE8F083033802289ABF024B53F820006A
:104CBC000148704788510B0020E7032008B50022FB
:104CCC004068FFF7ABFBBDE80840FFF7EBBF000007
:104CDC00024B034A1A6000225A60704720E70320F7
:104CEC009C510B00232813B502D9002002B010BD33
:104CFC00A0F10B03022B1AD8174C2178BFF35B8F52
:104D0C0011F001010BD120460191FFF7C8F901996F
:104D1C0028B11248FFF7F8FB2046FFF7C5F90F4BF7
:104D2C001878FFF7B7FA0028DFD10120DEE7012859
:104D3C0009D800F09BF80021007CFFF793FA80F073
:104D4C000100C0B2D2E709380128EED800F04EF8C5
:104D5C00007CFFF747FAF2E728E703202CE7032053
:104D6C00232838B504460D460AD8FF2908D0FFF78A
:104D7C00B9FF28B129462046BDE83840FFF7D2B923
:104D8C0038BD38B504460D46FFF7D4F9FF2810D0CE
:104D9C00062804D84D2323FA00F0C30709D4204673
:104DAC00FFF7A0FF28B129462046BDE83840FFF7A1
:104DBC00C9B938BD7047000038B5044614252A46D9
:104DCC00002100F08DF825804025074925812846D3
:104DDC00258200F06FF804496060284600F06AF8FC
:104DEC00E060204638BD00BFD8510B0030B50E4DE9
:104DFC002978BFF35B8F11F0010487B011D12846DD
:104E0C00FFF74DF968B101A8FFF7D6FF01AA2146BB
:104E1C000648FFF7FFFD2846FFF746F9044800F067
:104E2C004BF8024807B030BD34E7032038E70320C5
:104E3C00C14D0B007047000038B50A4B03600123CD
:104E4C00044643610849202000F034F820256060B6
:104E5C000549A560284600F02DF8C4E90305204655
:104E6C0038BD00BF18000100D8510B0030B50E4DF5
:104E7C002978BFF35B8F11F0010487B011D128465C
:104E8C00FFF70DF968B16846FFF7D6FF6A46214671
:104E9C000648FFF7FFFD2846FFF706F9044800F027
:104EAC000BF8024807B030BD50E7032054E703204D
:104EBC00414E0B00FFF7EFB8002301461A46184687
:104ECC0000F044B80A44914200F1FF3300D170471E
:104EDC0010B511F8014B03F8014F9142F9D110BDF7
:104EEC0002440346934200D1704703F8011BF9E7D3
:104EFC0038B5104B1D68AB6B0446B3B91820FFF7DF
:104F0C00A5FA0246A86320B90B4B0C484221FFF7C7
:104F1C00ADFA0B490B4BC0E900130B4B83600B2311
:104F2C00838100210120C2E90401AB6B00221C61CA
:104F3C005A6138BD50E60320D9510B00F0510B00DB
:104F4C000E33CDAB34126DE6ECDE05002DE9F843E3
:104F5C00DFF8B8800646D8F800001F460D4691468B
:104F6C0000F056F8254B1C6834B9254C1C60254BB9
:104F7C0013B11B68C4F8883063681F2B07DDD8F8A1
:104F8C00000000F047F84FF0FF30BDE8F8834EB357
:104F9C00D4F8880088B91C4B23B9D8F8000000F06D
:104FAC0038F8F0E74FF48470FFF750FA0028F4D08B
:104FBC000023C0E94033C4F88800636840F82390AC
:104FCC0001229A4000EB8301D0F800311343C0F862
:104FDC000031022EC1F8807002BFD0F804311343A7
:104FEC00C0F804316368D8F800005A1C02336260C0
:104FFC0044F8235000F00EF80020C6E7F4E7032035
:10500C0068E703200000000059440B00B4E60320BD
:10501C0070477047704700002D400B0069400B0033
:10502C0091400B0095400B000000000000000000B8
:10503C0000000000F7440B00ED440B00E3440B00B0
:10504C00D9440B00CD440B00C1440B00994B0B0011
:10505C00A14B0B00B5440B00AD440B00A3440B005B
:10506C0099440B00C94C0B00D14B0B00D94B0B00D6
:10507C006170700025592D256D2D25645425483AF5
:10508C00254D3A2553257A0061736374696D65006B
:10509C000000000000000000C5470B00B5470B00E6
:1050AC00B7470B000000000000000000AB480B00ED
:1050BC0013490B00E9480B005D450B00DB480B0066
:1050CC00AD480B00BD480B000D490B0019460B00F9
:1050DC00CD480B00A5480B000000000000000000AC
:1050EC00A5490B00114A0B00E9490B005D450B006B
:1050FC00B9490B00D5490B00C7490B00E3490B001C
:10510C0019460B00A7490B00AB490B00000000002F
:10511C0000000000494A0B00934A0B006B4A0B003D
:10512C004B4A0B00734A0B007B4A0B00834A0B0063
:10513C008B4A0B0019460B00000000000000000019
:10514C003B4B0B00314B0B00274B0B00DD4A0B008C
:10515C001B4B0B000F4B0B00994B0B00A14B0B0087
:10516C00034B0B00FB4A0B00F14A0B00E74A0B0008
:10517C00C94C0B00D14B0B00D94B0B00C4E60320E0
:10518C0018E7032020E703200000000000000000C7
:10519C00594B0B00634B0B006D4B0B00774B0B000B
:1051AC00814B0B008D4B0B00994B0B00A14B0B0053
:1051BC00A94B0B00B54B0B00BD4B0B00C74B0B00A9
:1051CC00C94C0B00D14B0B00D94B0B000052454581
:1051DC004E54206D616C6C6F6320737563636565F1
:1051EC00646564002F6D6E742F776F726B737061D2
:1051FC0063652F776F726B73706163652F474343E1
:10520C002D31302D706970656C696E652F6A656E15
:10521C006B696E732D4743432D31302D706970656A
:10522C006C696E652D34385F323032303131323446
:10523C005F313630363138303634312F7372632F5C
:10524C006E65776C69622F6E65776C69622F6C691D
:10525C0062632F7374646C69622F72616E642E6367
:10526C0000000000E9400B0001450B0029450B0034
:10527C004D450B0045460B0055460B0071460B0087
:08528C00454B0B00DD4C0B004B
:10529400040000001400000003000000474E550005
:1052A400FA2F632C91D49BD431F5B430BDF041F284
:0452B400CEF3B597E9
:1052B80094500B0054E6032000000000000000009A
:1052C80000000000000000000000000000000000D6
:1052D80000000000000000000000000000000000C6
:1052E80000000000000000000000000000000000B6
:1052F80000000000000000000000000000000000A6
:105308000000000000000000000000000000000095
:0C5318000000000000000000F8E7032087
:045324000000000085
:10532E0000000102030405060708090A0B0C0D0E06
:10533E000F101112131415161718191A1B1C1D1EF7
:04534E001F202800F4
:045352007856341243
:04000003B000401CED
:00000001FF
